:1000000000000420D5980200FD980200FF9802002D
:100010000199020003990200059902000000000006
:100020000000000000000000000000005D21020050
:1000300009990200000000007D2102000D990200D4
:10004000A59D02000F990200654E02002D350200A9
:100050000F9902000F990200992F02000F990200D8
:100060005D3D0200B53D02000D3E0200ED33020091
:100070000F9902000F9902000F9902000F990200D8
:10008000194C0200111D02000F9902000F99020085
:100090000F9902000F9902000F9902000F990200B8
:1000A0000F9902000F9902000F990200653E0200AD
:1000B0000F9902000F9902000000000000000000EC
:1000C0000F9902000F9902000F990200A535020056
:1000D0000F9902000F9902000F990200B95F020008
:1000E0000F9902000F9902000F9902000000000012
:1000F000000000000F990200000000009D34020083
:1001000000000000000000000000000000000000EF
:1001100000000000000000000000000000000000DF
:1001200000000000000000000000000000000000CF
:1001300000000000000000000000000000000000BF
:020000021000EC
:10000000EFBEADDE000000000000000000000000B8
:1000100000000000000000000000000000000000E0
:1000200000000000000000000000000000000000D0
:1000300000000000000000000000000000000000C0
:1000400000000000000000000000000000000000B0
:101000008C6E0600000000001D4B0100746F06008E
:10101000946E0600000000001D4B0100746F060076
:1010200024C4060000000000A93A01003075060043
:10103000986E060000000000DD3A010058750600B9
:10104000A06E060000000000353E0100107506008D
:101050000469060001000000F9620100F47A06004C
:10106000FC68060001000000CD730100B09006008E
:10107000F46806000100000095730100888D0600E9
:10108000EC7A0600020000001D630100007C0600EF
:101090005076060001000000454C01008C760600E9
:1010A000D077060001000000FD4D0100E07706004A
:1010B000D877060001000000355101005078060085
:1010C0005C6E060001000000B93D0100E0730600FF
:1010D000646E060001000000E13A0100046F0600A2
:1010E0006C6E060001000000A945010000700600BA
:1010F000746E060001000000F53C0100E46E06007D
:101100007C6E060001000000D53C01001C74060046
:10111000846E060001000000D53B0100A4740600A7
:101120005876060001000000C14C01006076060000
:101130000469060002000000E15E0100BD5E0100DE
:10114000F5330100BD380100507A0600F46806004E
:1011500002000000FD720100016A0100F533010088
:10116000BD38010000000000FC680600020000001D
:10117000916C0100016A0100F5330100BD380100E6
:1011800000000000912F01009536010010B5054CBC
:10119000237833B9044B13B10448AFF30080012323
:1011A000237010BDC80A0020000000004C1E07007C
:1011B00008B5034B1BB103490348AFF3008008BDDA
:1011C00000000000CC0A00204C1E0700A3F5803A66
:1011D000704700BF174B002B08BF134B9D46FFF70E
:1011E000F5FF00218B460F461348144A121A06F0E9
:1011F0007BFF0E4B002B00D098470D4B002B00D0EF
:1012000098470020002104000D000D48002802D05E
:101210000C48AFF3008006F025FF2000290000F005
:1012200013F806F0F9FE00BF0000080000000000FF
:101230000000000000000420C80A0020E80402208A
:10124000000000000000000008B500F013F802F0F4
:101250005DFA02F03FFA18F02BFE00F035F803F0CB
:10126000BFFC01F077FF01F0F3FE01F08BFEFEE71B
:1012700030BF704700B583B000F03EF8032010F097
:10128000E7FF4FF0A0430C22C3F8202711F0BAFA71
:1012900080B913F063FD094B1B689847084B1B6826
:1012A0009847084B1B6801934EF6602003B05DF829
:1012B00004EB184711F0A4F9EBE700BF88610600C2
:1012C0006C6106004C61060008B5094B09481B68B3
:1012D000984701F075FE20B9BDE80840002000F0F5
:1012E000BBBB00F0C1F8BDE80840002000F0B4BB73
:1012F000D8610600C5350100204B1B68082B08D0BB
:10130000FF224FF01023D3F80832DBB293420DD105
:1013100070471B4B1B68052B01D95A22F1E7194A6C
:10132000D35C002B0CBFFF225A22EAE7164B0121A7
:1013300030B4C3F80415D3F800140029FBD04FF0E3
:1013400010240025D4F808120F4821F0FF010A43A9
:10135000C4F80822C3F80455D0F80034002BFBD0A1
:10136000BFF34F8F09490A4BCA6802F4E062134386
:10137000CB60BFF34F8F00BFFDE700BF300100100F
:10138000340100103861060000E0014000ED00E08B
:101390000400FA05024A136801331360704700BF66
:1013A000E40A0020014B187813F0AABC94F4012041
:1013B00010B5114B044693E8070084B001AB83E8F5
:1013C00007000E490294184613F03AFC38B90C484D
:1013D00013F070FC50B913F05FFC04B010BD11F0B5
:1013E0000FF9074813F066FC0028F4D011F008F953
:1013F00013F052FC04B010BD4061060095130100CB
:1014000094F40120F0B50478631E012B83B01ED93B
:101410000CB103B0F0BD124F3B680DF107001E8800
:101420005D8811F05FF80F4B1A78B2B9731CED1A92
:10143000C5F30A053DB13A689DF807101644C3F399
:101440000A033171138001F047FE03B0F0BD37216C
:10145000002000F0EFF903B0F0BD1C7003B0F0BD48
:1014600000000020EC12002030B50C4D0C4B8BB06E
:1014700004AC00930FCD0FC495E8030084E803008B
:10148000084C094A4FF400650623694604A8CDE9D3
:101490000245019510F09AFF0BB030BD5461060073
:1014A000F0120020F01A00200514010008B511F018
:1014B00009F8BDE8084011F07DB800BF79B138B532
:1014C0000446451801E0AC4207D014F8010B11F0B6
:1014D00037F80028F7D01B2038BD002038BD002089
:1014E000704700BF014B1B6803607047F02200206B
:1014F000054B1B68984288BF03F1FF33181A8842D6
:1015000034BF002001207047F022002010B584B0C5
:101510000021104B0391104A1048029302A912F0C7
:1015200029FB044698B90E4B0C48D3F810254FF40C
:101530007A510123D2B221FA02F20093002112F073
:10154000E1FB064812F0B6FB204604B010BD11F0D6
:1015500057F8E8E707000007651501007861060005
:1015600000A00040B0F5A07F03D1024A1368013308
:1015700013607047F0220020034B044A1B68D3F825
:101580000413C3F8082370470400002003000F0071
:10159000034B1B684FF48032C3F80423704700BF2D
:1015A00004000020024BA02283F80B23704700BFE9
:1015B00000E100E0024B1B68D3F80405704700BF50
:1015C00004000020081A48BF00F18070704700BF77
:1015D000014B1860704700BFFC2200209FED010AFC
:1015E000704700BF286BEE46704700BF0F4BF0B44A
:1015F0001B680F4DD3F804352C68B4EBD33F4FEA8A
:10160000D3360DD80B4C24682E6006EB44244FF4DF
:101610000047C3F30E0304600B601760F0BC704713
:10162000044F3C6801343C60EEE700BF040000203A
:10163000F8220020F4220020144BF0B41D6864232B
:10164000D5F8046502E013F0FF0305D0D5F8044592
:10165000A64203F1FF33F6D00D4D2B68B3EBD43F18
:101660004FEAD4360DD80B4B1B682E6006EB432394
:10167000C4F30E044FF4004703600C601760F0BC25
:101680007047044F3B6801333B60EEE704000020E5
:10169000F8220020F422002008B5054811F04AFE87
:1016A000034811F011FE034B00221A6008BD00BF71
:1016B00004000020FC220020044B1A68024422F09F
:1016C0007F4203480123002111F040BE0C0000209E
:1016D0000400002010B50B4B0B4C0C4A93E80300A0
:1016E00082B000230090ADF80410094823606946D9
:1016F000ADF8003011F0A6FD10B9054811F00EFE4E
:1017000002B010BD80610600FC2200201517010008
:101710000400002018B9024B1B6803B1184770473A
:10172000FC22002007EE900ADFED1B6A1B4BB8EE8F
:10173000677A70B5C7EE267A93E8030082B0184C3A
:10174000184E009000232046ADF80410ADF800308C
:10175000FCEEE77AC6ED007A11F0ECFD204611F0C0
:10176000B3FD114A2046694611F06CFD90B905465B
:10177000204611F033FE22683368D2F804251A445B
:10178000294622F07F420123204611F0DFFD20464A
:1017900011F0C4FD02B070BD286BEE4680610600FA
:1017A000040000200C0000201517010007EE900A2D
:1017B000DFED1B6A1B4BB8EE677A70B5C7EE267A71
:1017C00093E8030082B0184C184E00900023204686
:1017D000ADF80410ADF80030FCEEE77AC6ED007A03
:1017E00011F0A8FD204611F06FFD114A2046694610
:1017F00011F028FD90B90546204611F0EFFD226852
:101800003368D2F804251A44294622F07F42012386
:10181000204611F09BFD204611F080FD02B070BD06
:101820000000FA3C80610600040000200C0000204B
:10183000151701002DE9F84F1B4B197090B31B4D84
:10184000DFF86CA08B4645F001054FF0A048BBF1D6
:10185000000F26D0D9464FF4005703269AF800000F
:1018600013F04EFA6424C8F80C754FF47A40A84778
:10187000013CFAD1C8F8087564244FF47A40A847AF
:10188000013CFAD1013EE9D14FF47A744FF47A4029
:10189000A847013CFAD1B9F10109DED1BBF1000F33
:1018A000D8D1FEE7BDE8F88F00230020D061060004
:1018B00094F40120024B187880F00100704700BFBB
:1018C000D0230020704700BF10B5064B04460A46DF
:1018D0000548214601241C7017F088FFB0FA80F0FB
:1018E000400910BDD0230020F061060008B5124B5E
:1018F000186016F0DFFE114B114800221A7015F027
:10190000F5FC38B90F4815F0C9FD50B915F088FD40
:1019100068B908BD10F074FE0A4815F0BFFD002834
:10192000F4D010F06DFE15F07BFD0028F1D0BDE87D
:10193000084010F065BE00BFCC230020D02300205B
:1019400014620600F061060010B5032906D8DFE82E
:1019500001F00E021D06144B00221A7010BD124B2E
:101960000022BDE8104001201A7010F049BC17F0A9
:1019700061FF0E49044640220D4817F05FFF0D4BF2
:101980000A481B682146BDE810401847064B002254
:1019900001201A7010F022FCBDE8104003490448F1
:1019A000402217F04BBF00BFD02300208C23002023
:1019B000F0610600CC230020023808B50D280CD8B1
:1019C000DFE800F00C110B0B0B0B1621280B0B0B97
:1019D0002C0716F069FE052826D008BDBDE8084092
:1019E000002010F00DBCBDE80840002010F0F6BB50
:1019F00014F03EFF0028F0D110F09CFFC8B9BDE8FC
:101A0000084015F025BD15F03BFDBDE8084000205D
:101A100010F048BFBDE8084015F01EBD15F01AFDD6
:101A2000BDE8084010F0FEBBBDE80840032004F00C
:101A300039BA10F065FF10F07DFF0028FBD1DEE71A
:101A4000044AD2E9003113F1FF3341F10001C2E948
:101A500000317047D823002008B500230D4A0E49F5
:101A6000184600F067F80D4A106030B101224FF0BF
:101A7000FF3100F05FF930B908BD094B094A0A4847
:101A80002A2106F0A7FA094B064A07482D2106F03D
:101A9000A1FA00BF411A0100BC620600E023002049
:101AA00020620600A46206002C6206009C6206000A
:101AB00000B5084B83B001A9186800F06FF9064B18
:101AC0000198D3E90023101843F1000103B05DF839
:101AD00004FB00BFE0230020D823002070B5104E87
:101AE00084B005460C46306803A900F057F9306809
:101AF00002A900F053F9029A039B9A42F7D0094BCE
:101B00000299D3E90023521843F10003C5E90023E9
:101B10002FF080F80190019B236004B070BD00BFDE
:101B2000E0230020D82300200B690BB14869184737
:101B3000704700BF2DE9F04F85B08846019200291B
:101B400038D06B4C267B05469A4616B3237A8342DF
:101B500000F0CA8094F82430002B00F0BF8094F885
:101B60002030834200F0BA8094F83C30002B00F023
:101B7000B78094F83830834200F0B28094F8543043
:101B8000002B00F0B38094F8506086420CBF03260F
:101B90000426042D04D8DFE805F077838F031300B3
:101BA0005448554B5549C01AC008000440F0020083
:101BB00000F07CFA4FF0000B584605B0BDE8F08FFE
:101BC00006EB460304EBC3024D4944F8331040F2E0
:101BD00003639380770007EB060904EBC90901232F
:101BE00089F80C30484612F037F8D8F800204549FB
:101BF0008A42CB464FF001036AD243498A420DD252
:101C0000424B9A4266D8424B9A4265D8414B9A421F
:101C100068D8414B9A4294BF0923082398F80510CD
:101C20008DF8083003294FF000038DF809303E4449
:101C300098BF3A4B3A4A98BF5B5C0199CDF80C903B
:101C400004EBC60488BF032398F80460216148466A
:101C500002A9C4F814A025728DF80B608DF80A3023
:101C600011F088FF0028A7D0234B22482D49C01A25
:101C7000C0084FF0000B00042A4640F0020084F830
:101C80000CB000F06BFA97E706EB460304EBC302D7
:101C9000254944F833104FF48063938077009AE726
:101CA00006EB460304EBC302204944F8331040F22C
:101CB0000143938077008EE706EB460304EBC302F3
:101CC0001B4944F8331040F202439380770082E7C7
:101CD0000023A3E70223A1E703239FE7012658E798
:101CE000022656E7042399E7002652E7032650E729
:101CF000E4230020A01E0700501E0700C462060057
:101D000000B001400024F40000127A00FF083D00FA
:101D10007F841E003F420F00678909003063060080
:101D2000291B010004630600008000400090004071
:101D300000A0004028B370B5044682B0D9B1036852
:101D4000D3F81055EDB20E0FC5F12003090106FAC4
:101D500003F3E940203D1943002A26FA05F54FF028
:101D6000010640F2011341EA050218BF334600960E
:101D7000002111F0C7FF204611F09CFF002002B0A7
:101D800070BD6FF00A00704720B108B511F0A0FFD8
:101D9000002008BD6FF00A00704700BF58B110B5B1
:101DA0000C4629B1012111F0A1FF2060002010BDD7
:101DB0006FF00A0010BD6FF00A00704738B5A8B187
:101DC0000C4D0446002308462B7000F0D9FB41F26D
:101DD0000C030948EC5000F0E9FB044608B120462A
:101DE00038BD064800F022FD204638BD07242046B5
:101DF00038BD00BF1C360020D81E07004C6306000B
:101E000099B10E4B0E495B1ADB0815D030B4002295
:101E10000C4D02E0013293420BD035F8224084424F
:101E2000F8D151F8320030BC7047054951F8300004
:101E30007047002030BC704718467047C81E070026
:101E4000501E0700E8040220094B013903EBC000D3
:101E500003290BD8DFE801F00402080604207047CC
:101E60000220704740797047007970470020704722
:101E7000501E0700704700BF2DE9F043844DD5E99F
:101E800001239A4285B068D041F218030022EA503B
:101E9000BFF34F8FAC68C4F30903D91C05EB810273
:101EA00015F8211048071AD56E687A4F137803F099
:101EB0000303012B4BD0022B03D15388033404EBD3
:101EC0009314C4F309033868D91C05EB810230B9B7
:101ED000A64240F2DB8015F821104907E6D405EB55
:101EE0008301621CA31CC2F30902C3F30903C9687E
:101EF000019105EB820205EB8303D268DB6801F0F8
:101F000003010229CDE9022304F103067CD0012953
:101F100027D041F21003EC583CB1236820469B685F
:101F20009847E3681C68002CF7D15B4B5B485C4921
:101F3000C01AC008000440F0020000F0B7F8AE6814
:101F40006868801B18BF012005B0BDE8F0831388C6
:101F50000334C3F383131C44B3E7002005B0BDE88A
:101F6000F083BDF804304F48C3F38312062A28BF1C
:101F70000622D11C62F389138900ADF8043000F009
:101F800017FB07460028C4D000F05CFB00230C229E
:101F900001A9384600F086FBBDF8043013F4707FC9
:101FA00019D06FF00208A8EB04080C24C6F309014D
:101FB00003312346042205EB8101384600F072FB11
:101FC000BDF80420013608EB0603C2F383129A42DF
:101FD00004F10404EAD841F21003EC585CB1E36860
:101FE0005A79204639465AB123681B689847E368F6
:101FF0001C68002CF3D1384600F028FBAE609FE748
:102000001C68002CEBD1F6E7BDF806402548C4F368
:10201000891404F10C0100F0CBFA074600283FF4C4
:1020200078AF00F00FFB002301A938460C2200F026
:1020300039FBF343C3F309030133C6F30901B4EBDE
:10204000830F4FEA830001F1030117D95FFA80F88B
:10205000A4EB000905EB810142460C2338465FFAE8
:1020600089F900F01FFB10494A4608F10C03384675
:1020700000F018FB033406EB9406ACE705EB810196
:102080000C232246384600F00DFBF3E7AE605BE719
:102090001C36002034460020501E0700A01E0700FA
:1020A00034630600D81E0700283600202DE9F041D1
:1020B000284E044600200F4610F090FAD6E901534E
:1020C00003F580635B1B022B3CD9C5F3090808F1BB
:1020D0000308EB1C0522002046F82820736010F04E
:1020E00085FA00211C4810F0D3FA80F310006B1C15
:1020F000C3F3090306EB830341F20C02000440EA38
:102100001440D8600235B358E4009847C5F3090578
:1021100004F0380406EB850544F0010444EA872402
:10212000E86046F8284033781BB9FFF7A3FEBDE806
:10213000F081FFF7A1FE0028F7D0FFF79DFE0028F1
:10214000F7D1F2E70121044810F0B0FA002010F0B6
:102150004DFAE8E71C360020384600202DE9F84308
:102160002C4E044600200F46914610F037FAD6E96F
:10217000015303F580635B1B032B43D9C5F30908A7
:1021800008F1030845222B1D002046F82820736023
:1021900010F02CFAEB1CC3F3090306EB83030021B8
:1021A0001D48C3F80C9010F073FA80F310006B1CFC
:1021B000C3F3090306EB830341F20C02000440EA77
:1021C0001440D8600235B358E4009847C5F30905B8
:1021D00004F0380406EB850544F0410444EA872402
:1021E000E86046F8284033781BB9FFF743FEBDE8A6
:1021F000F883FFF741FE0028F7D0FFF73DFE0028E7
:10220000F7D1F2E70121044810F050FA002010F055
:10221000EDF9E8E71C3600203846002030B441F2E2
:102220001003124DE95804460020B1B10B4601E0FD
:102230001B6853B1DB681A798242F9D101300A2850
:10224000F3D14FF0FF3030BC7047E2681071CB68BB
:10225000196811601C6030BC7047E36841F21002DD
:102260001871AC5030BC1960704700BF1C3600209C
:1022700038B541F21002084B9C5801251D704CB135
:102280002368E2685B68557120469847E3681C68DC
:10229000002CF5D138BD00BF1C360020F0B5C38836
:1022A00087B004460D46002B54D1217A05294FD022
:1022B000637A002B41D12B4B2B492C4A1E68206896
:1022C0000968B0FBF1F1B1FBF6F0A2FB00324FF46C
:1022D000616CD70A264B0CFB1707A3FB07C306FB51
:1022E00010105B094FF47A71C3EB031C01FB00F083
:1022F000A7EB8C07B0FBF6FC06FB1C00CDF804C076
:10230000D20A009701FB00F01A49B0FBF6F00290E8
:10231000284600F0A1FA184B227AA08853F8222010
:1023200005920021FFF76CFD059A144903462846E3
:1023300007B0BDE8F04000F08FBAA088FFF784FD39
:102340000F4B104953F82020284600F085FAB2E7D9
:1023500007B0F0BD0C4A00920C490D4A284600F027
:102360007BFAA2E7544A0020584A0020C5B3A29144
:102370008988888880630600286406009C630600BC
:1023800004640600E06806007863060060630600E7
:10239000586306002DE9F04385B04FF0000C0C9C0B
:1023A000814694F80C8084F80CC00E4617461846F7
:1023B00021461D46FFF772FF062F09D8DFE807F018
:1023C000042E343B444F1F004946204600F044FA97
:1023D0002B7A052B05D06B7A5BB92749204600F094
:1023E0003BFA204600F02CFA84F80C8005B0BDE8DA
:1023F000F083224A2249204600F02EFAEDE7D6E982
:102400000413F2680393B3680291CDE900324946A0
:10241000D6E90023204600F01FFAD9E73268494682
:10242000204600F019FAD3E7D6E9002349462046B2
:1024300000F012FACCE7B3680093D6E900234946CE
:10244000204600F009FAC3E7D6E902320192009370
:10245000D6E900234946204600F0FEF9B8E7D6E960
:102460000321B3680291CDE900324946D6E9002341
:10247000204600F0F1F9ABE72C690600786306000E
:10248000E0680600082900D970472DE9F04F9B4607
:1024900083B000241B7B8BF80C400D460646594642
:1024A000104690460193DFF8D0902C4FFFF7F6FED0
:1024B00005E0325D013400F0CFF9082C09D0A542C7
:1024C00039465846F5D84946013400F0C5F9082C7C
:1024D000F5D12349DFF8A490224C234F584600F051
:1024E000BBF94FF0000A0DE0D15D11F0970F08BF66
:1024F0002E22214658460AF1010A00F0ADF9BAF140
:10250000080F10D0554505D916F80A207E2AEBD9B8
:102510002E22EEE7494658460AF1010A00F09CF9DE
:10252000BAF1080FEED198F80830052B02D098F8D0
:10253000093063B90D49584600F08EF9584600F04D
:102540007FF9019B8BF80C3003B0BDE8F08F084A8F
:102550000849584600F080F9ECE700BFA863060080
:10256000B4630600B8630600EC9806002C69060008
:1025700078630600E0680600B0630600A463060006
:10258000074A0849012390420B6005D94008904250
:102590004FEA4303FAD80B60034B1860704700BF43
:1025A00040420F00584A0020544A002000F0E2B890
:1025B0002DE9F041058A0331043D4E198046B6FBF2
:1025C000F5F600F0F9F8A0B3F6B24FF48073013ECF
:1025D0000446C580C0F8008083802BD003460025C8
:1025E00008E06279AE4202F1010262713860C0F81F
:1025F00000801FD040461F4600F0DEF8013503463C
:102600000028EED16779791E17D02246013399420E
:102610001268FBD1D2F800805FB12668002501E086
:102620003446366821460135404600F0E9F8AF42AD
:10263000F6D800242046BDE8F0812068214600F04D
:10264000DFF8F6E70430012110F030B82DE9F04151
:1026500001210446043010F037F810F0FF0301D0D8
:10266000BDE8F0816779791E16D022460133994280
:102670001268FBD1D2F80080002FF1D02668002527
:1026800001E03446366821460135404600F0B8F88E
:10269000AF42F6D8BDE8F08120682146BDE8F041A0
:1026A00000F0AEB82DE9F843C688054640791446D7
:1026B00006FB00F2043A04EB030C1F1D624538BF11
:1026C000D41ABE428846B7FBF6F106FB117002D859
:1026D00001392D68FCD1371AA74228BF27469CB183
:1026E0004FF000090430E41B28443A4608EB090186
:1026F00005F0ECFCA642B9442D6837464FF00000C7
:1027000028BF2746002CEDD1BDE8F8832DE9F8431A
:10271000C68805464079144606FB00F2043A04EBED
:10272000030C1F1D624538BFD41ABE428846B7FB52
:10273000F6F106FB117002D801392D68FCD1371A69
:10274000A74228BF27469CB14FF000090430291842
:10275000E41B3A4608EB090005F0B8FCA642B94470
:102760002D6837464FF0000028BF2746002CEDD1DA
:10277000BDE8F883E8B130B4D0E901431B1B02681F
:10278000DBB2591EC9B214607BB1023B651C1560F7
:10279000DBB2217041B101680A685C1E551C0D60F6
:1027A0001370E3B2FF2BF6D102680020107130BC29
:1027B00070470E20704700BF70B5044600200FF030
:1027C0000DFFD4E900231168994213D9A368157944
:1027D000481E10601B1AE66811F8011C248ADBB23F
:1027E0009D4204FB016400D2137100200FF0FEFE35
:1027F000204670BD002400200FF0F8FE204670BD7A
:1028000038B5054600200C460FF0E8FE2A68298AF4
:102810001368581C1060EA68A41AB4FBF1F41C7029
:10282000BDE8384000200FF0E1BE00BF8368002201
:102830005A60C3E904229A60DA601A60704700BFE8
:10284000826842B110B5436901680446006998473F
:102850000023A36010BD70470EB400B582B0039989
:1028600021B104AB01AA019300F0ACF802B05DF80D
:1028700004EB03B0704700BF2DE9F04F164683B05C
:10288000B142DDE90C920F4605469A46C0F09580AC
:102890000B464FF00108B3FBF6F39E4208F1010826
:1028A000F9D9D04538BFD04612F00103019302D1C7
:1028B000B9F1000F5ED1AA68012403E00AF1FF3AE2
:1028C00006FB04F4BAF1010FF8D8B7FBF4F39E420B
:1028D000F6D9DFF8ECA007E0B442B4FBF6F31AD364
:1028E000AA681C46B7FBF3F31AF803B0BBF10A0F52
:1028F00004FB137728D02B68511CA96003F802B0A1
:10290000D5E901329A42E7D32846FFF799FFB4FB95
:10291000F6F3B442E4D2019B9BB1B9F1000F10D0A1
:102920002024C84509F1FF390BD2AB682A68591C2D
:10293000A960D454D5E901329A4214D2B9F1000FFA
:10294000EFD103B0BDE8F08F511C2B68A9604FF0A8
:102950000D019954D5E901329A42CCD32846FFF7AC
:102960006FFFAA68C7E72846FFF76AFFB9F1000FB3
:10297000D7D1E6E793071AD42024AA68C84502F104
:10298000010199D22B68A9609C54D5E901329A4281
:1029900009F1FF3903D2B9F1000FEFD18CE72846D6
:1029A000FFF74EFFAA68B9F1000FE7D184E7BAF14B
:1029B000000F0CBF30242024DFE74FF0010870E740
:1029C0003C640600002900F04E822DE9F04FDFF84C
:1029D000AC950C7885B0064690460D464FF00D0A32
:1029E00010E00A2CB36800F0AD803268591CB16069
:1029F000D454D6E90130984280F0A0802C78002C85
:102A000000F087800135002C00F08380252CE8D170
:102A1000294600270D4611F8012B2D2A00F0888049
:102A2000302A00F088802B2A7AD02A2A00F0998058
:102A3000A2F13003092B4FF000040BD804EB8404FF
:102A400002EB440415F8012FA2F13003092BA4F185
:102A50003004F3D92E2A00F09080002301E015F80D
:102A6000012F02F0FB016829F9D0252A00F07181BD
:102A7000583AD1B2202947D8202A45D8DFE812F0A9
:102A80002F0144004400440044004400440044003A
:102A90004400440044003D010D0144004400440052
:102AA00044000D014400440044004400440044003C
:102AB000CC0044004400A2004400940044004400C0
:102AC0002F0101209842024638BF1A460292002C7C
:102AD00040F04A81B80740F16881002B40F04882FD
:102AE0001C46BBF1000FC0F204827A0700F1148289
:102AF00007F00302022A00F0B781CDE900475946EA
:102B00000A223046FFF7B8FE01352C78002C7FF4FE
:102B100079AF337B002B40F0168105B0BDE8F08F14
:102B20000D4611F8012B2D2A47F004077FF478AFEA
:102B300047F001076EE747F002076BE73046FFF703
:102B40007FFE5BE73268591CB16002F803A0D6E94A
:102B500001239342FFF449AF3046FFF771FEB3689B
:102B600043E7D8F800301A1DC8F800206A781C68BE
:102B70002E2A05F101057FF470AF6A78A2F13003C7
:102B8000092B05F101054FF000033FF66AAF03EB97
:102B9000830302EB430315F8012FA2F13001092949
:102BA000A3F13003F3D95CE7D8F80020116801974E
:102BB0000432C8F80020304600940A22FFF75CFE79
:102BC0000135A2E7D8F800301A1DC8F8002017F028
:102BD0000107D3F800B040F0EA80BBF1000F03D04A
:102BE000584606F0EBF90746BC4240F255812022D8
:102BF00002E0BC4200F05081B1683368481CB0600C
:102C00005A54D6E90130984204F1FF34F1D33046EA
:102C1000FFF716FE2022ECE7D8F80030B2681F68F4
:102C200031680433C8F80030501C3023B0608B5436
:102C3000D6E90123934280F0EF803268581C782156
:102C4000B060D154D6E901329A4280F0E0800F2F73
:102C500003D93B461B090F2BFCD84FF0805406E0EC
:102C60000F2C4FEA14137FF64FAFB2681C46B7FB28
:102C7000F4F319F803B0BBF10A0F04FB137754D037
:102C80003368511CB16003F802B0D6E901309842B4
:102C9000E6D33046FFF7D4FDE2E7D8F80010D1F8CC
:102CA00000B08BEAEB72A2EBEB720431092AC8F890
:102CB00000107FF706AFDFF8C8C201201146632974
:102CC000ACFB02E200F101004FEAD202F6DC9842CE
:102CD000024638BF1A460292002C45D1FAE6D8F8CF
:102CE0000020116801970432C8F800203046009493
:102CF0001022FFF7C1FD013507E7D8F800301C7836
:102D000004330A2CC8F80030B36800F0118132682F
:102D1000591CB160D454D6E901309842FFF4F4AEA6
:102D20003046FFF78DFD0135EFE63368511CB16089
:102D300003F802A0D6E901329A42A1D33046FFF748
:102D40007FFDB2689CE7304605B0BDE8F04FFFF765
:102D500077BDB3683168581CB060CA54D6E90130F9
:102D60009842DDD20135D0E6BBF1000F59DB7A077E
:102D700057D4B80702D5002B3FF4B3AEF9073FF59F
:102D8000B0AE94B120220299A142BFF4AAAEB168BC
:102D9000481CB06030684254D6E90101814204F118
:102DA000FF3480F0D480002CEDD1002499E69BF80C
:102DB0000030002B00F0E080B0685F46CBF10102EC
:102DC0000A2B02EB070B3CD0411CB16031680B545D
:102DD000D6E90130984226D217F8013F002BEFD1F7
:102DE0005C457FF691AE202702E05C453FF48CAE57
:102DF000B2683368511CB1609F54D6E901309842E3
:102E000004F1FF34F1D33046FFF71AFDEDE7304609
:102E1000FFF716FDB2681AE73046FFF711FDB368F9
:102E20000BE7013CA5E730460292FFF709FD17F8D2
:102E3000013F002BD4D0029AB0680A2B02EB070B9B
:102E4000C2D1411CB160316801F800A0D6E901107F
:102E50008842B9D33046CDE90232FFF7F1FCDDE913
:102E60000232B068B0E77047002B7FF446AE8CB1F9
:102E700030220299A142BFF440AEB168481CB06054
:102E800030684254D6E90101814204F1FF3468D22E
:102E9000002CEED1002430E69BF80040002C3FF4DB
:102EA00033AE0A2CB0680ED03368421CB2601C549A
:102EB000D6E90130984214D21BF8014F002C3FF4A0
:102EC00023AE0A2CF0D13368421CB26003F800A094
:102ED000D6E901309842E7D33046FFF7B1FCB0683D
:102EE000E2E73046FFF7ACFC1BF8014F002CD8D1CD
:102EF0000AE6B1684A1CB26032682D205054D6E907
:102F000001219142CBF1000BFFF4F2AD3046039367
:102F1000FFF796FC039BEBE5B1684A1CB260326890
:102F20002B205054D6E901219142FFF4E1ADEDE7A9
:102F30003268591CB16002F803A0D6E9012393421C
:102F4000FFF4E5AE3046FFF77BFCB368DFE63046C2
:102F50000393FFF775FC039B2022002C7FF413AF33
:102F600023E730460393FFF76BFC039B30228FE788
:102F7000F9073FF5B6AD18E79B4631E73C6406001C
:102F8000CDCCCCCC08B50DF0EBFE002008BD00BFC9
:102F900008B5034903484FF41C7205F097F808BDC3
:102FA0005064060050080020004870475008002078
:102FB00000487047500800200048704788080020EB
:102FC000014B93F86802704750080020014B83F8CA
:102FD0006802704750080020F0B51A4E336883B07D
:102FE00043B3194C194F60684FF0FF3201A90CF040
:102FF0002BFB0028F7D1019B022B08D0042B4FF4A8
:10300000FA70F0D10CF016FC01F030F8EBE74FF05D
:10301000FF3130680CF040FA00F0F6FA05463068EF
:103020000CF064FA00F03EFB034639465B69284623
:103030009847D8E70CF0BEF930600028D1D103B032
:10304000F0BD00BF5C4A002098F40120ACF40120E0
:1030500030B540F6080083B00CF0A4F8034660B128
:10306000184A19495A604FF4006400205C801870B7
:103070000A68A2F5006208330A60144C144AA3607F
:103080004FF400610325CDE90015124800210CF032
:1030900009FB206028B10CF05BFA606050B103B00E
:1030A00030BD38210120FEF7C5FB0CF051FA6060FD
:1030B0000028F4D13821012003B0BDE83040FEF7EC
:1030C000B9BB00BFADDEADDE1404002098F40120D2
:1030D000C0660600D92F0100034B586810B10221C9
:1030E0000CF0A8BA704700BF98F4012000B5074B58
:1030F000074D5C6883B000230193A047052201A916
:1031000028680CF0A1FA00F0FFF8F6E74C61060021
:10311000604A0020074B1B6853B110B50CF03AF819
:10312000044600F06DF82046BDE810400CF038B8B9
:10313000704700BF644A0020044B1B6823B1044B56
:10314000002118680CF076BA704700BF644A00206E
:10315000604A002010B54FF4027082B00CF022F8E3
:1031600060B11B4B1B4A43604FF400740021448044
:1031700001701368A3F500730830136002214FF447
:103180000072CDE900210346134A144800210CF0D7
:1031900089FA134B1860A8B10CF0DAF9114B1860DA
:1031A00058B100F021F808B902B010BD0921012082
:1031B00002B0BDE81040FEF73DBB38210120FEF70C
:1031C00039FBEEE738210120FEF734FBE4E700BFCE
:1031D000ADDEADDE14040020C8660600ED3001004F
:1031E000644A0020604A002008B50CF0E3F8034A66
:1031F0000346B0FA80F01360400908BD70CA002091
:1032000038B5094D4FF0FF3128680CF045F908B189
:10321000012038BD054B0446C3F8024028680CF075
:1032200065F9204638BD00BF70CA0020684A0020FA
:10323000F8B5174F04460D46386840F621310CF0BA
:103240002BF908BB134E7388B1885A1C891AC1F335
:103250000E018D4213DA002D0ADD611900E05A1CBF
:1032600014F8010B33448C429871C2F30E03F6D16B
:103270007380002438680CF039F92046F8BD092124
:10328000FEF7D8FA0924F5E701242046F8BD00BF6F
:1032900070CA0020684A0020F8B5194E04460D4651
:1032A000306840F621310CF0F7F818BB15494B880F
:1032B0008A885F1CD21BC2F30E02954215DA002DDC
:1032C0000ADD254400E05F1C14F8012B0B44AC42DE
:1032D0009A71C7F30E03F6D14B80002430680CF0CE
:1032E00005F9FFF729FF2046F8BD0921FEF7A2FAEC
:1032F0000924F3E70124FFF71FFF2046F8BD00BFB4
:1033000070CA0020684A00202DE9F041344E82B096
:1033100030684FF0FF310CF0BFF8E8B9314DDFF8FD
:10332000D080AF886C88D8F80430E41BC4F30E0456
:1033300001A898473CB9002430680CF0D7F8204623
:1033400002B0BDE8F081D8F80830019840F621318C
:10335000984730B10324EFE70124204602B0BDE8CE
:10336000F08102F0A5FD032824D0402C1E48A04681
:103370003B4628BF4FF04008002205EB030C01320A
:103380009CF806C000F801CB01339045C3F30E034F
:10339000F3DCAB80FFF714FE98B9144B12489B681E
:1033A000414698470028C6D10B21FEF743FA0B246B
:1033B000AF80C1E70D4B5B6998470028D5D1012448
:1033C000BAE7402C2146084828BF4021FEF776F88E
:1033D0000028B0D01B210020FEF72CFA1B24ABE7FD
:1033E00070CA0020684A002074CA0020D861060014
:1033F0006C6106002DE9F04F894685B0002900F088
:10340000D080164600220546684F3088DFF8B0A10C
:1034100002920FFA83F81446019226E00121FFF789
:103420003BFF30882B5C0A2B3ED00D2B3CD09AF80A
:103430000020022A64D0002A76D13A885C498B5455
:10344000013292B230883A80013008EA000080B23E
:10345000B2F5806F308004D3002202233A808AF8CC
:1034600000300134A4B2A14514D02B5C082B2844B1
:10347000D4D150480321FFF70FFF3A88002A3AD1F0
:1034800030880130013408EA0000A4B280B2A145BE
:103490003080EAD1019B1BB1474B029900225A545C
:1034A000019805B0BDE8F08F3A88002AE9D09AF873
:1034B00000B0BBF1000FC7D1029B3F483C490192CD
:1034C000184404F003FE019A3B490298A7F800B0A3
:1034D0008B180A2119543088029B013001321A449A
:1034E00008EA0000022380B292B2029230808AF889
:1034F00000300193B5E7013A92B230883A80A3E7F1
:103500003A882B498B5430882B5C7B2B08BF2B4986
:1035100002F101020CBF0123002392B208BF0B701D
:103520003A808AF800308FE7B7F800B0204A02F8F6
:103530000B3030882B5C0BF1010292B27B2B3A806E
:103540002AD07D2B80D11D490B78013BDBB20B705B
:10355000002B7FF479AF03931748029B1449019223
:10356000184404F0B3FD1449019A0298039B3B8070
:103570000A440A2111543088029A01300BF10203E7
:10358000134408EA0000022280B29BB2029330800A
:103590008AF80020019264E708490B7801330B7028
:1035A00052E70191019805B0BDE8F08FBCD600202C
:1035B000BCD20020D0660600ACF40120B8D20020B6
:1035C000110000200F4B70B41D682B886A885C1CAA
:1035D000121BC2F30A028A4210D91E4669B1014485
:1035E0004A1E013800E05C1C10F8011F2B44824287
:1035F0001971C4F30A03F6D19EB22E8070BCFFF796
:103600006BBD00BF14000020F0B5204E204F326883
:103610003B681488528819885B8883B0A41AC91A39
:10362000C4F30A04ADF80420C1F30A05ADF806306E
:103630001CB9B5B9002003B0F0BDFFF7C1FC0028EC
:10364000F7D000F02FF83368056901AA2146181D4C
:1036500040F2FF73A8473368BDF804205A8003B0D6
:10366000F0BD02F025FC0328E4D100F01BF83B6814
:1036700004690DF10602181D294640F2FF73A047A8
:103680003B68BDF806205A80D5E700BF0000002047
:1036900014000020014B024A1A607047C00A002043
:1036A000DC660600014B1868704700BF1800002058
:1036B000034A044B002808BF10461860704700BF3B
:1036C000C00A00201800002008B5FFF76DFCD0F8F4
:1036D000600208BD002016F07BBB00BF08B5FEF7F6
:1036E000CBFB0028FBD105200CF09EF8F7E700BFCC
:1036F00000B5054B83B0186801A9FEF74FFB019890
:1037000003B05DF804FB00BFC0D6002010B5002355
:103710001A46224982B00420FEF70CFA204A1060B3
:10372000002834D001224FF0FF31FEF703FB40BBED
:103730001C491D48FEF742FB00BB0BF05BFB4FF43E
:1037400042700BF02FFD60B1184B194A43604FF4E3
:1037500040740021448001701368A3F54073083061
:10376000136006214FF44072CDE900210346114A4F
:10377000114800210BF096FF02B010BD0EF040FF83
:10378000DBE70E4B0E4A0F483E2104F023FC0E4BA4
:103790000B4A0C483B2104F01DFC00BF8867060063
:1037A000C0D6002040420F00F1360100ADDEADDE94
:1037B0001404002074670600DD3601009C620600D8
:1037C0007C67060004670600F86606002DE9F041F4
:1037D00007464FF49A700BF0E5FC002840D02E4AC3
:1037E0002E4B4260DFF8D0804FF49671002241806A
:1037F0000270044603CBD8F800209E78B3F800C0CE
:1038000004F10805A2F59672C8F80020A060E160F6
:10381000A4F810C03846AE7205F0D0FBB0F5907F2A
:1038200006461FD9284605F0C9FB1D4B01465B68BB
:1038300028469847082DA5F108000DD0164A416882
:1038400015F8083C914221D1022B19D8418858F82B
:1038500023200A4448F82320BDE8F0410BF0A4BC23
:10386000BDE8F081721C394604F10F0004F02EFC13
:1038700007360C4BAA1919889B78A9539370D1E786
:10388000094B0A4A0A48CA2104F0A4FB094B074A1B
:103890000748C92104F09EFBADDEADDE906706004F
:1038A0001C0000202C6906001C68060090680600B9
:1038B000B46706009C67060014040020022840F04C
:1038C000BB802DE9F04F6B4CDFF8D891C4F8009025
:1038D0000B7889B05BB1684E0D46F25C02F00302D2
:1038E000022A4FD02B7015F8013F002BF5D1084666
:1038F000624906F01DFA064690B3614D4FF0000391
:103900008DF80C3033787B2B4AD05E4902AB03AA8A
:10391000304605F0CBFAA945C4F8009078D24FF0B4
:1039200000084746DFF87CA1DAF8001003A819B1B7
:1039300005F03AFB8346B0B10AF1100AAA45C4F873
:1039400000A0F1D35048FFF741FF17B1384601F00E
:1039500085FF4A49002006F0EBF906460028CDD144
:1039600009B0BDE8F08F9AF80410002937D001297A
:1039700052D0FFF797FE8369002B6FD14348FFF7C2
:1039800025FFE2E7203B2B7015F8013F002BA4D167
:1039900008463A4906F0CCF906460028ADD1DFE7E3
:1039A000304602F0DFF9074670B3394902F04AFAAF
:1039B000D0F81080B8F1000F0CD03649384602F02C
:1039C00041FA0346002853D04046334903AA98469B
:1039D00005F06CFAA945C4F80090A3D3B2E7FFF74D
:1039E00061FE83694BBB206883680299304642467A
:1039F00098470646002837D005F0E0FA274B0146E5
:103A00005B6830469847A0E7A945C4F8009086D384
:103A10001D48FFF7DBFE9CE70191FFF743FE0379AA
:103A2000012BDCD0FFF73EFE8369002BA6D01A7A6B
:103A300001995B6832B9A1E770471A7A5B68022185
:103A4000002AD0D0206898420BF1010B03F110033B
:103A5000CAD09345F7DB012990D0C5E71A7A5B6895
:103A6000002A8BD00121EDE70D48FFF7AFFE6CE790
:103A70008046AFE7ACFC0120EC980600F068060039
:103A8000301101006868060038680600706806009A
:103A90004C68060058680600646806001C00002098
:103AA000846806000010010000B583B0FFF732FB08
:103AB000064B07485B6802219847064B019301A813
:103AC00016F004FA044803B05DF804FB1C00002063
:103AD0002C690600DC660600B06E060001F080BBB3
:103AE00070B584B0002306460C460093FFF764FAD5
:103AF000114905466B46304601AA05F0D7F9C0B218
:103B000002280AD1012C10D80C4885F8644004F032
:103B1000010385F8B83004B070BD95F8B8100848B6
:103B200002F094F9054804B070BD0648214602F041
:103B30008DF9054804B070BD68680600B06E0600D7
:103B400098680600A4680600A86E060070B50D1EF1
:103B500088B0164604460CDD194B421919889B782B
:103B60004153937005F02AFA01462046FFF794FB73
:103B70000025144B0793304605F020FAD0F11E00C3
:103B800017D4114B0093A0EB600107AACDE90332D3
:103B9000029143100D490196204605F067F9204631
:103BA00005F00CFA01462046FFF776FB284608B0E0
:103BB00070BD07493246204605F058F9EFE700BFCF
:103BC0002C6906002D2D2D0064970600C86806009C
:103BD000E476060070B586B00446FFF7E5F90646C0
:103BE000FFF7EAF92C49054603AB20466A4605F083
:103BF0005DF9022809D0D6F8603233B31968274836
:103C000002F024F9264806B070BD264A039B934271
:103C10000FD0254A93421AD0244B039A9A4222D0BD
:103C2000234B039A9A422BD0224802F00FF92248E4
:103C3000E9E7BDF81020462AEBD1204BC6F86032E8
:103C40000023174885F82432DDE71D49D7E7BDF882
:103C50001030462BE0D11B4BC6F8603201231048D0
:103C600085F82432CFE7184B049A9A42D8D19DF8B0
:103C70001430002BD4D1154B0948C6F86032C2E786
:103C80009DF81030002BCFD1114BC6F860320223C3
:103C9000034885F82432B6E7DC680600E4680600CD
:103CA000B06E0600494E4954524553504C49535446
:103CB0004E4F4E4510690600A86E06004C110100DB
:103CC000D466060068110100454E455230110100CE
:103CD000DC66060010B503F047FB0BF05BFA044608
:103CE00016F0D2F820460BF05BFA014810BD00BF79
:103CF000B06E060000B587B0002301930AF0C6FF3E
:103D000018B11F4807B05DF804FB1E4833F064FC8F
:103D100020B916F0F5F838B133F07CFC0BF058F808
:103D2000174807B05DF804FB01A832F069FE10B136
:103D300016F012FAF0E702A9019833F067F9049936
:103D4000114802F083F8DDE90221104802F07EF804
:103D500005990F4802F07AF8DDE90221059B0D482C
:103D600002F074F8019832F05BFE16F0F5F933F0CA
:103D700051FC0BF02DF8084807B05DF804FB00BFBC
:103D8000A86E060004030020306906004C69060096
:103D90006C69060088690600B06E060008B5034A23
:103DA000034B0448CA2104F015F900BFA0750600B2
:103DB0001C680600B467060010B582B00BF0EAF983
:103DC0000446002016F03AF820460BF0E9F90023EB
:103DD00001930AF05BFF10B1134802B010BD134805
:103DE00033F0FAFB20B916F08BF830B133F012FC47
:103DF0000AF0EEFF0C4802B010BD01A832F000FE40
:103E000010B116F0A9F9F1E7019832F09FFE019880
:103E100032F006FE16F0A0F933F0FCFB0AF0D8FFF2
:103E2000034802B010BD00BFA86E060004030020C6
:103E3000B06E06002DE9F0476E4B93E8030082B0A8
:103E400000904FF4B370ADF804100BF0ABF90746D7
:103E5000002800F0BB80684BDFF8089243604FF405
:103E6000AF71002241800270D9F80030634900F13F
:103E70000806A3F5AF7345F65A223046C9F800305C
:103E800004F0F4FF5E4B07CBC7F80E00C7F8121022
:103E9000C7F816205B495C4A07F1190004F0E6FFF9
:103EA00000F11105FFF7FEFB034658491A68701927
:103EB00004F0DCFF0544564970196A4604F0D6FF49
:103EC0002C18544B544A5549554D301904F0CEFF27
:103ED000544A03CA04F1210392F800C0F050F218CA
:103EE000514B51609D4204F1290482F808C015D25B
:103EF00003F1FF38A8EB050805F1200328F00F08AF
:103F0000DFF864A19844103555F8102C301951464B
:103F100004F0ACFF103545450444F5D1331913F8CE
:103F2000012C2C2A08BF04F1FF34404A08BF331982
:103F30001068127930511A712CF0CCFC04F104088D
:103F400006EB080402463A49204604F08FFF8044FD
:103F500034F09CFB06EB080402463649204604F088
:103F600085FF354B35491A8808EB000498783253A1
:103F70003319221F987007F10A0004F077FF304BC5
:103F8000304A98781D887B21A31CB973F118F5522B
:103F9000043488705368214630469847B4F5AF7FA3
:103FA00020DC082EA6F108000DD0134A416816F84F
:103FB000083C91420ED1022B12D8418859F8232097
:103FC0000A4449F823200BF0EFF81F4F384602B09F
:103FD000BDE8F0871D4B1E4A1E48C92103F0FAFFB9
:103FE000FFF7DCFE1C4B1D4A1D4840F2C51103F0D3
:103FF000F1FF00BFEC6A0600ADDEADDEAC69060085
:10400000B4690600C0690600241E0700D4690600D2
:10401000EC690600006A06000C6A0600186A0600D1
:10402000501001002C6A060080100100406A060052
:10403000486A0600586A06006C6A0600706A060044
:104040002C6906001C000020B06E06009C6706006C
:10405000A0750600B4670600786A06009875060029
:10406000906A060014040020386A060000B583B088
:10407000034B019301A815F029FF03B05DF804FB81
:10408000DC6606002DE9F043A5B00446FEF78CFF80
:104090002D210646204604F07AFF002800F0D88043
:1040A0002046A14905F044FE00250446039500285A
:1040B00076D09E4FDFF8D082DFF8D09203AA39463F
:1040C000204604F0F3FE012859D003AA41462046B9
:1040D00004F0ECFE012867D003AA4946204604F00C
:1040E000E5FE01286AD0924903AA204604F0DEFECC
:1040F00001286DD08F4903AA204604F0D7FE01287D
:104100006ED08D4903AA204604F0D0FE012871D05C
:104110008A4903AA204604F0C9FE012874D08849C0
:1041200003AA204604F0C2FE012800F081808549E0
:1041300003AA204604F0BAFE01286FD0824903AAE0
:10414000204604F0B3FE012800F08A807F4903AACC
:10415000204604F0ABFE012874D015F0FF0F17D0F5
:1041600004AD7B492246284604F080FE0146794B87
:1041700028465B689847002025B0BDE8F083039887
:1041800001F072F8013075D0039801F06DF83070CD
:104190006549002005F0CCFD0135044600288DD18D
:1041A000012025B0BDE8F083039801F087F80130C5
:1041B00068D0039801F082F8F070E9E7039801F005
:1041C000C1F8013066D0039801F0BCF87071DFE7E8
:1041D000039801F0DBF801306CD0039BB371D7E793
:1041E000039801F051F801306CD0039801F04CF8BD
:1041F000F071CDE7039801F0D5F801306AD003984B
:1042000001F0D0F83072C3E7039801F0D7F801301D
:1042100048D0039801F0D2F87072B9E7039801F022
:1042200063F8013066D0039801F05EF87073AFE771
:10423000039801F097F8013054D0039801F092F8F8
:104240003073A5E7039A3F2A64D886F869229FE76E
:1042500004AD41492246284604F008FE014686E79F
:10426000039801F0B7F801304CD0039801F0B2F890
:10427000B0738DE704AD3949039A284604F0F6FD82
:10428000014674E704AD3649039A284604F0EEFD72
:1042900001466CE704AD3349039A284604F0E6FD75
:1042A000014664E704AD3049039A284604F0DEFD78
:1042B00001465CE704AD2D49039A284604F0D6FD7B
:1042C000014654E704AD2A49039A284604F0CEFD7E
:1042D00001464CE704AD2749039A284604F0C6FD81
:1042E000014644E704AD2449039A284604F0BEFD84
:1042F00001463CE704AD2149039A284604F0B6FD87
:10430000014634E704AD1E49039A284604F0AEFD89
:1043100001462CE73F2304AD1A49009328460023A9
:1043200004F0A4FD014622E7F46A0600F86A0600DC
:10433000606B0600886B0600B06B0600D86B060049
:10434000006C0600286C06004C6C0600746C0600BD
:10435000B86C06001C000020D06C0600006B060044
:10436000206B0600406B0600E46B06006C6B0600D9
:10437000946B0600BC6B06000C6C0600346C0600E7
:10438000586C0600806C0600186B0600346B060043
:104390002DE9F04E4FF49A700AF004FF002800F067
:1043A000CB806C4B6C4A43604FF496740021448080
:1043B00001701368A3F59673136000F1080900F10A
:1043C0000A0B8246FEF7F0FD644D6549044645F64A
:1043D0005A22484604F04AFD0FCD2D88C9F8123004
:1043E000A9F81650C9F80A10C9F80E20C9F8060035
:1043F000207800F041FF5B49024609F1170004F004
:1044000035FD00F11707E07800F064FF09EB0706BF
:1044100002465549304604F029FD0744607900F012
:1044200099FF09EB070502465049284604F01EFD96
:104430000744A07900F0B0FF09EB070502464C499C
:10444000284604F013FD0744E07900F02BFF09EB48
:10445000070502464749284604F008FD0744207A2C
:1044600000F0A6FF09EB070602464349304604F078
:10447000FDFC0744607A00F0A7FF09EB0705024640
:104480003E49284604F0F2FC0744207B00F074FF0C
:1044900009EB070502463A49284604F0E7FC0744C1
:1044A000607B00F045FF09EB0705024635492846C9
:1044B00004F0DCFC3D18A07B00F096FF09EB05063C
:1044C00002463149304604F0D1FC054494F8692293
:1044D0002E4909EB050004F0C9FC2C182C49A21F39
:1044E000584604F0C3FC2B4B2B4A188899787B253F
:1044F00009EB040389F8065029F804009970536801
:10450000A11C48469847B9F1080F10D0114ADAF8B3
:1045100004109AF80030914214D1022B18D80E4999
:10452000BAF8020051F82320024441F823205046F3
:10453000BDE8F04E0AF038BE81466FF0070A4FF032
:10454000020B3FE7154B164A1648C92103F042FDFE
:10455000FFF724FCADDEADDE14040020486D06003C
:10456000AC6906005C6D06006C6D0600786D060097
:10457000886D0600986D0600A86D0600B86D0600EF
:10458000C86D0600D86D0600E86D0600FC6D0600DB
:10459000706A06002C6906001C0000209C6706005B
:1045A000A0750600B467060010B58EB006AB0C49C6
:1045B00003AA044604F07AFCC3B2012B0DD0022BEF
:1045C00006D008480190FFF7E3FE01980EB010BD39
:1045D0002046FFF757FD0028F3D00348F2E700BF5D
:1045E0000C6E0600A86E0600B06E06002DE9F04FB6
:1045F0004FF49A7083B00AF0D5FD002800F05B817B
:10460000B44B43604FF49672B34B42800024047065
:104610001A68DFF800B3B14FCBF80070A2F59672BC
:104620001A6000F108050AF0B5FD0246AC48019297
:1046300004F0C4FCAB4EDFF8EC827268DFF8A8929D
:104640000146A74890477268A7480221904747450E
:10465000CBF8007030D2DFF8D0A239461DE0B94265
:1046600062D0514569D0A14B99426FD0A04B99427D
:1046700000F00681022E0BD00A684AB128199D4924
:104680000A3404F0F3FB272C00F30381DBF800105D
:1046900010314145CBF800100ED20E79002EDED03D
:1046A000FFF700F80379DBF80010012BD7D01031A9
:1046B0004145CBF80010F0D3FEF7F4FF0379022B4D
:1046C0004DD0FEF7EFFF0379012B00F08E80281903
:1046D000B9F8002099F8023002808370284604F06F
:1046E0006DFC804B01465B682846984701980AF0AC
:1046F00057FD082DA5F1080010D0764A416815F83D
:10470000083C914240F0DF80022B00F2DA80724CCC
:10471000418854F823200A4444F823200AF044FD39
:10472000754803B0BDE8F08F2146744A2846FFF76C
:104730000DFADBF8001004469CE72146704A284633
:10474000FFF704FADBF80010044693E721466D4AB0
:104750002846FFF7FBF9DBF8001004468AE7FEF76E
:10476000A1FF8369002BACD0FEF79CFFD0F8188026
:10477000B8F1000FABD0D8F8002021462846FFF74B
:10478000E5F998F80830D8F8047006462818002B88
:104790009ED0584C10374FF0000A08E098F80830C7
:1047A000A8190AF1010A9A4507F1100790DA57F89B
:1047B000102C002AF4D0A81921460A3604F056FB22
:1047C000272EEBDDA91999F80230B9F80020AA5379
:1047D00028468B7004F0F2FB01462846FEF75CFD8C
:1047E000002698F808302846DBE7474B474A9342B3
:1047F000BFF46DAFDFF8FCA09846D8F818B0BBF155
:10480000000F37D02146DBF800202846FFF79EF93D
:104810009BF80830DBF8046004465BB310360027D1
:1048200006E09BF8083001379F4206F1100621DAB6
:1048300056F8102C002AF6D0281951460A3404F0F4
:1048400015FB272CEDDD2B19B9F800202A5399F818
:1048500002209A70284604F0B1FB01462846FEF774
:104860001BFD9BF8083001379F424FF0000406F112
:104870001006DDDB254B08F11C089845BDD326E763
:104880002146234A2846FFF761F9DBF80010044669
:10489000F0E62B19B9F800202A5399F802209A70F3
:1048A000284604F08BFB01462846FEF7F5FC002461
:1048B000DBF80010ECE6174B084A1A6003B0BDE8BD
:1048C000F08FFFF76BFA144B144A1548C92103F017
:1048D00081FB00BFADDEADDE14040020001001003E
:1048E000241E07001C0000202C6906009010010007
:1048F000C0100100186E0600B06E0600B86E06000B
:10490000CC6E0600EC6F060030110100841101002E
:1049100090740600ACFC01209C670600A0750600A0
:10492000B467060030110100501001002DE9F04F6E
:10493000824683B04FF49A700AF034FC002800F0ED
:104940009A80674B674F43604FF496710022418015
:1049500002703B68644CDFF8A891644EC4F8009084
:10496000A3F596733B6000F108050AF013FCB1450E
:10497000C4F8009080464B465FD2A9461D460BE026
:104980002568286820B1514604F00EFB002833D07A
:104990001035B542256011D22D79FEF783FE0379DB
:1049A000AB42EDD0002DEBD0FEF77CFE0379012B5E
:1049B000E6D025681035B5422560EDD34D46DFF8C9
:1049C00054C12E460CF1200E64460FCC7445306065
:1049D0007160B260F360A44606F11006F4D120685D
:1049E000A188A279424B3060B180B2715B68414CC2
:1049F00026212846984723E03F49DFF8F4B0524685
:104A0000484604F033FA484604F0D8FADBF804309C
:104A100001464846984723684D46D3F80C900D212F
:104A2000484604F0B4FA70B3484604F0C7FADBF81D
:104A300004300146484698472368B342BFD22F4C02
:104A400040460AF0ADFB082DA5F108000DD0244A20
:104A5000416815F8083C914239D1022B3DD8418874
:104A600057F823200A4447F823200AF09DFB2046EC
:104A700003B0BDE8F08F214C1B4B214A1A60204641
:104A800003B0BDE8F08FDFF890A0CDF8048001E01E
:104A900009F14D091B4A4B464E21284604F0B2F954
:104AA0008046284604F08AFABAF800302B522B18B8
:104AB0009AF802109970DBF80430811C2846984758
:104AC000B8F14D0FE4DCDDF804802368B5E70E4B48
:104AD0000E4A0F48C92103F07DFAFFF75FF900BFC6
:104AE000ADDEADDE14040020ACFC0120301101006D
:104AF0001C000020A86E0600206E0600B06E0600A6
:104B000000100100E06806009C670600A075060022
:104B1000B4670600286E06002C69060030B587B021
:104B20000C46154611496B4603AA04F0BFF901284B
:104B30000FD002280AD19DF800302A4621467BB9C1
:104B40000DF10100FFF7F2FE07B030BD002007B005
:104B500030BD2A46214603A8FFF748FD07B030BD07
:104B60006846FFF7E3FE07B030BD00BF506E060099
:104B7000FEF7AABD704700BF00B583B0FFF7F8FF8E
:104B8000019010B101A815F0A1F9134B134D5C6809
:104B900018E0FEF787FDC3681BB1FEF783FDC3680D
:104BA00098470020FEF784FD0AF020FE0098FEF7EB
:104BB0007FFD009B9B68002003B198472B699847B5
:104BC0000AF014FEA047C821684615F08BF90130A1
:104BD000DFD1FFF7CFFFF1E74C610600D861060097
:104BE00010B541F2D40082B00AF0DCFA68B1114B82
:104BF000114A436041F2CC040021448001701368E3
:104C0000A3F586530C3B08301360052141F2CC021A
:104C1000CDE900210346094A094800210AF042FD76
:104C200008B102B010BD3821012002B0BDE810402B
:104C3000FCF700BEADDEADDE14040020A875060052
:104C4000794B010070B584B0002305460C460093F3
:104C5000FEF7B6F96B461549064601AA284604F048
:104C600025F9C3B2022B0AD1012C14D876B1CCB1EC
:104C700004F00100FEF7AAF90D4804B070BD0D481C
:104C8000314601F0E3F80A4804B070BD002CEFD0C3
:104C9000FCF7EAFBECE70848214601F0D7F80748A3
:104CA00004B070BDFCF702FCE2E700BF68680600D4
:104CB000B06E0600B0750600A4680600A86E060077
:104CC0002DE9F84309F0E2FF00285BD105464FF4D7
:104CD00002700AF067FA044600285FD04FF40072B1
:104CE000374BDFF81491057042804360D9F80030EB
:104CF000A3F5007300F10808C9F800300AF04AFA79
:104D0000414606468022284609F06CFC054630469E
:104D10000AF046FA002D3CD12A482B4F2B4E01F0C9
:104D200095F8A2682948294601F090F82C46454696
:104D30000134384601F08AF855F8042F21463046F0
:104D400001F084F87F2CF3D12148224C01F07EF849
:104D5000B8F1080FA8F108000DD0194A416818F8F9
:104D6000083C914225D1022B1DD8418859F82320B7
:104D70000A4449F823200AF017FA0AF029F82046D5
:104D8000BDE8F883144C154801F060F82046BDE8F2
:104D9000F8831348104C01F059F8D9E711480E4C2C
:104DA00001F054F8E9E7104B104A1148CA2103F00A
:104DB00011F9104B0D4A0E48C92103F00BF900BF41
:104DC000ADDEADDE24760600746D06003876060092
:104DD0004C760600B06E0600A86E0600BC75060094
:104DE00004760600DC7506001C680600C076060026
:104DF000B46706009C670600140400202DE9F04308
:104E00002DED028B0024B7B021463D22054606A8B1
:104E10000594002603F068F9002721467C2217A894
:104E2000CDE902670194169403F05EF909F02EFFB4
:104E300030B1AC4C204637B0BDEC028BBDE8F083FE
:104E400032F0CAFB04460028F3D1A749284604F0F3
:104E50006FFFA549204604F06BFF4022014605A8DC
:104E600004F0C6F89DF814305BB1A04805A9C25CF7
:104E700002F00302012A32D00B7011F8013F002B1F
:104E8000F5D116AD2946802205A832F03DFB061E5D
:104E90002CDB9549002004F04BFF0446002800F06D
:104EA000ED80042E2CDC0022022E114600F39980A6
:104EB00005F020F801A90346324605A8019332F017
:104EC000EDFA0546002800F0BF8001998848854C1E
:104ED00000F0BCFF32F09EFB09F07AFFAAE7203316
:104EE0000B7011F8013F002BC1D1CAE705A9814819
:104EF0007C4C00F0ABFF32F08DFB09F069FF99E7C5
:104F0000082E47DD06F108000AF04CF9002800F0F1
:104F1000D280794B794A4680002707704360136836
:104F2000DFED778A9FED778A9B1B136000F1080500
:104F300000F106084FEA660911E0BEEEEA0A10EE3B
:104F4000103A1BB228F8023F6749002004F0F0FE37
:104F500001374F4504467FD0002800F08380237836
:104F6000302B04D1637803F0DF03582B4FD0204659
:104F7000002104F083FEB5EEC00AF1EE10FADCDA8F
:104F800060EE687A77EE887AFDEEE77A17EE903A6F
:104F90001BB2D7E70022114605F0D8F8CDE902018F
:104FA00002AF00253246394605A832F077FA0028CC
:104FB00034D039684E484B4C00F048FF32F02AFBA1
:104FC00009F006FF002D3FF435AF082DA5F10800CC
:104FD0000DD10AF0E9F8204637B0BDEC028BBDE8F0
:104FE000F08305F00FF801AF01900025DAE7424A9F
:104FF000416815F8083C91426DD1022B65D83F49B4
:10500000458851F823202A4441F82320E1E7002273
:105010002046114604F06EFF03B293E73A4805A913
:1050200000F014FF741E0134DFF804813C4414F8CE
:10503000011D404600F00AFFBC42F8D13348344C11
:10504000314600F003FFB9E72F4805A900F0FEFE46
:10505000741E76B301AFE6E72E4805A900F0F6FE10
:105060002F469FE73B46324605A92B481D4C00F0D2
:10507000EDFE32F0CFFA09F0ABFEA6E7224805A913
:1050800000F0E4FE5EB1741EDFF8A4802C442178A9
:10509000404600F0DBFEA54204F1FF34F7D1314673
:1050A0001A481B4C00F0D2FE32F0B4FA09F090FE20
:1050B000C0E62946F4E705A918480A4C00F0C6FEE8
:1050C00032F0A8FA09F084FEB4E6154B154A1648EA
:1050D000CA2102F07FFF154B124A1348C92102F082
:1050E00079FF00BFA86E0600A4630600EC980600D6
:1050F000AC770600C8760600ADDEADDE14040020F5
:105100000000004500008047EC760600F4760600BB
:10511000B06E06003C770600647706000C77060048
:105120001C68060078780600B46706009C670600D5
:10513000047706002DE9F04FB1B000217C2211A8C0
:10514000109102F0D1FF09F0A1FD18B11F4831B054
:10515000BDE8F08F32F040FA0028F7D1804669466A
:105160001FFA88F0DFF870A0194EDFF8709032F067
:10517000CFF810BB6946504610AD00F067FE2946D7
:105180008022684632F0C0F9071E09DD7C1E2C44DF
:105190002178304600F05AFEAC4204F1FF34F7D1DA
:1051A0003946484608F1010800F050FE69461FFAEA
:1051B00088F032F0ADF80028DCD032F02BFA09F09C
:1051C00007FE044831B0BDE8F08F00BFA86E0600AE
:1051D00004770600B06E0600EC760600F476060052
:1051E00070B5C0B068460AF0C5F80A2104A80AF0F4
:1051F00045F8144A14490546144800F027FE002DCE
:105200000EDD04AC05EB4505114E04EBC5056369E5
:10521000E26821463046183400F018FEA542F6D167
:10522000039A0C490C4800F011FE019A0B490A48F8
:1052300000F00CFE029A0A49074800F007FE0948F0
:1052400040B070BD807806008C7806009878060023
:10525000A4780600B4780600C0780600CC78060072
:10526000E0780600F0780600052803D0092818BF6A
:105270004FF0FF30704700BF052803D0092818BF42
:105280004FF0FF30704700BF40F25233984207D0D2
:1052900041F69A23984214BF4FF0FF300120704727
:1052A0000020704730B1012841F69A2018BF4FF016
:1052B000FF30704740F25230704700BF04381C285E
:1052C0009ABF034B53F820004FF0FF30704700BFE8
:1052D0001479060003289ABF024B53F820004FF0C0
:1052E000FF30704788790600B0F5807F1ED005DC5E
:1052F000402817D0802809D102207047B0F5806F70
:1053000012D0B0F5006F06D106207047203818BFC4
:105310004FF0FF307047B0F5007F14BF4FF0FF3003
:105320000420704701207047052070470320704714
:1053300006289ABF024B53F820004FF0FF30704709
:10534000F8780600A0F10903042B28BF4FF0FF30C6
:10535000704700BFA0F10903042B28BF4FF0FF30B6
:10536000704700BF032804DD082818BF4FF0FF3046
:10537000704740EAE0707047032804DD082818BF32
:105380004FF0FF30704740EAE0707047032888BF55
:105390004FF0FF30704700BF032888BF4FF0FF3049
:1053A000704700BF012888BF4FF0FF30704700BF33
:1053B000012888BF4FF0FF30704700BF012888BF29
:1053C0004FF0FF30704700BF012888BF4FF0FF301B
:1053D000704700BF012804DD032818BF4FF0FF30DD
:1053E000704740EAE0707047012804DD032818BFC9
:1053F0004FF0FF30704740EAE0707047704700BFE1
:10540000FDF74ABFF8B5002838D00E46002937D03E
:1054100084682ABB14B3DFF86CC0226ADAB1B242E6
:105420001CD0013A771E00E0C0B117F8010F1CF83C
:10543000003003F00303012B12F8013F1CF8035066
:1054400005F003050CBF00F120010146012D08BF46
:1054500020339942E8D02468002CDED12046F8BDE4
:10546000002CFBD0216A304629B103F09DFD0028B5
:10547000F4D02468F4E70C462046F8BD0446EDE776
:105480000C46EBE7EC9806002DE9F04793681668A8
:10549000F45C9046222C03F10102824606EB0205E1
:1054A00006EB03001AD1D8F80470BA4216D2894626
:1054B0002C46002203E00134A31BBB420ED223780A
:1054C000222B14D05C2BF6D10134A31BBB4205D296
:1054D0000134A31BBB4202F10102F0D325B1D8F87D
:1054E0000000281AC8F808000020BDE8F087231A39
:1054F000C2F101001844D8F810309847014600283E
:10550000ECD0A54280F04B81CD4F0A4605E002F871
:10551000013B0135AC4240F243812B785C2BF6D144
:10552000601B002819DD6E78752E16D85B2E37D9D2
:10553000A6F15C03192B10D8DFE803F0360F0F0F2C
:105540000F0F2C0F0F0F260F0F0F0F0F0F0F200F26
:105550000F0F1A0F140D05282BDCD8F8143008464D
:105560009847BCE70923022002F8013B0544D1E734
:105570000D23022002F8013B0544CBE70A23022059
:1055800002F8013B0544C5E70C23022002F8013B69
:105590000544BFE70823022002F8013B0544B9E7B0
:1055A000222E01D02F2ED8D1022002F8016B054403
:1055B000B0E7A878A0F13003DEB2092E0BD9A0F134
:1055C0004103052B40F20881A0F16103052B00F295
:1055D0001D81A0F15703E878A0F130065FFA86FC40
:1055E000BCF1090F4FEA031340F2E980A0F1410634
:1055F000052E40F2FA80A0F16106052E00F2068128
:10560000573803442879A0F130065FFA86FCBCF1D4
:10561000090F4FEA031340F2D480A0F14106052E92
:1056200040F2DD80A0F16106052E00F2EF805738D0
:1056300003446879A0F130065FFA86FCBCF1090FDB
:105640004FEA031340F2BF80A0F14106052E40F25D
:10565000C980A0F16106052E00F2D88057380344B6
:10566000A3F55C40B0F5806FFFF477AFA3F5584029
:10567000B0F5806F80F0A980A81D201A05287FF75B
:105680006CAFA8795C287FF468AFE87975287FF45F
:1056900064AF287AA0F130065FFA86FCBCF1090FEE
:1056A0000BD9A0F14106052E40F2D280A0F161068F
:1056B000052E3FF652AFA0F15706687AA0F1300CE4
:1056C0005FFA8CFEBEF1090F4FEA061640F2B48075
:1056D000A0F1410CBCF1050F40F2B780A0F1610CC4
:1056E000BCF1050F3FF639AF57383044AE7AA6F11A
:1056F000300C5FFA8CFEBEF1090F4FEA001040F249
:105700009980A6F1410CBCF1050F40F29B80A6F1F7
:10571000610CBCF1050F3FF620AF573E3044EE7AE6
:10572000A6F1300C5FFA8CFEBEF1090F4FEA0010B3
:105730007ED9A6F1410CBCF1050F40F28C80A6F198
:10574000610CBCF1050F3FF608AF573E3044A0F5A1
:105750005C46B6F5806FBFF400AF07EA8323C0F361
:105760000900184300F58033C3F3053C00F03F0601
:10577000C0F385106CF07F0C66F07F0660F07F0050
:1057800082F801C0D67090709B0CF0264FF0040C8C
:105790000C203343DBB2137005446244BAE60A4678
:1057A00000231370D8F80030E31A01331022CAF82E
:1057B00000200120C9F80010C8F8083095E63344ED
:1057C00020E7334435E733444AE77F2B10D8DBB278
:1057D00006204FF0010CDEE7A0F13703FBE6373877
:1057E000034426E7373803443AE73738034409E7E8
:1057F000B3F5006F0CD203F03F0060F07F005070F3
:105800009B09C0264FF0020C0620C2E70023DEE70A
:1058100003F03F06C3F3851066F07F0660F07F005B
:10582000967050701B0BE0264FF0030C0620B0E77B
:1058300060448CE7604472E70CEB060056E700BF5B
:1058400000FC0F00373E304469E7373830444DE7FD
:10585000A0F1370631E7373E304478E7F8B170B54C
:105860000F4E044625462468EB68D9050BD4A8687A
:1058700020B1FFF7F3FFEB68DA0504D4286910B113
:1058800073689847EB689B0503D4286A08B173686E
:105890009847736828469847002CE3D170BD70473D
:1058A0002400002000000000002956D02DE9F04F10
:1058B000D1F8008093B00C46B8F1000F32D0D1E996
:1058C0000196371D4F45054630D808EB060BAE490B
:1058D0005846042203F07AFB002840D006F1050A5E
:1058E000D14505D3A9490522584603F06FFB48B3BB
:1058F000A7495846042203F069FB40B34E4511D234
:1059000018F80630222B08EB060100F0A5802D2B9D
:105910002CD0A3F13002092A28D95B2B00F0B180EA
:105920007B2B7CD0002013B0BDE8F08F06F1050A78
:10593000D145E3D39549052208EB060003F046FB69
:105940000028DBD10120E860C4F808A0EBE70223BF
:105950000120EB606861A760E5E700207047042341
:105960000120EB60A76013B0BDE8F08F731E00212B
:1059700002AFA9EB06069844019138464FF02E0C71
:1059800018F8012F452A15D82A2A15D9A2F12B0378
:105990001A2B11D8DFE803F0411041371041414183
:1059A00041414141414141101010101010101010A0
:1059B00010104100652A30D012AB0B44002601A91B
:1059C000384603F8406C04F04DF9DDF804A0BA4500
:1059D00059EC108BA6D085ED060B69A3D3E9002303
:1059E00010EE100A494650F0A1F800283CD06FF0A4
:1059F00000436B61A368AAEB07071F440823EB6011
:105A00000120A7608FE780F800C001313F2900F135
:105A10000100D1D0B142B3D1CEE70270F5E7E3681F
:105A2000B3F57A7FBFF47EAF0133E36018F8063038
:105A30007B2B7FF477AF04E011F8013F202B00F2BD
:105A4000CF800136B145A660F6D8B14500F082811D
:105A5000A368013BA36065E7224605F1100105F14B
:105A60000C00FFF711FD5EE74A4B00224046494615
:105A700050F052F8002800F08F804FF000436B6127
:105A8000B8E7E368B3F57A7FBFF44CAF0133E36066
:105A900018F806305B2B7FF445AF03E011F8013FA7
:105AA000202B03D80136B145A660F7D8B14512BF07
:105AB000A36809F1FF33A3609945CAD918F80320F8
:105AC0005D2A00F04A81013B0027A3603E4623691E
:105AD00028209847B8460746002800F0348128223D
:105AE000002102F001FB002E62D0C8F80070C7F858
:105AF0000480A0682268411CA1607AB1D4F804C077
:105B00008C454FD9024403E09C45A3604CD919460B
:105B100012F8010F202801F10103F5D9214638467A
:105B2000FFF7C2FE002853D0D4F800E0BEF1000F0A
:105B300053D0D4E901C294453CD9511E714403E0CD
:105B40009C45A36039D01A4611F8010F202802F1B4
:105B50000103F5D962453BD21EF802302C2BB6D09A
:105B60005D2B35D1E3682022013BE360EA60A36846
:105B7000AE600133A3600120D5E600BFAFF3008023
:105B80000000C0FFFFFFDF4198790600A079060002
:105B9000A87906000000E0C1404649464FF0F0FFFA
:105BA000686127E70B4601469C4508BFA160B5E741
:105BB0003E469EE70CD10CF1FF32A260CAE700F02E
:105BC000BA80D8F81030C8F820300023C8F8103058
:105BD0003046FFF743FE0020A5E6D4E901C2B9E74D
:105BE000B14500F0B780A36899457FF632AF18F849
:105BF00003207D2A00F0B3804FF00008013BA36032
:105C000046464746236928209847C14680460028D3
:105C100000F099802822002102F066FA002E00F0A0
:105C20008880C9F80080C8F80490A0682268411CE8
:105C3000A1607AB1D4F804C08C4574D9024403E061
:105C40009C45A36071D9194612F8010F202801F173
:105C50000103F5D9224608F1100108F10C00FFF705
:105C600013FC0028B4D0D4F800C0BCF1000F6ED0F3
:105C7000D4E901038342A2D25A1E624403E00133F5
:105C80009842A36057D012F8011F2029F7D9D8F8FD
:105C90001020C8F820209842C8F8107098D91CF835
:105CA00003103A290CEB030292D10133A360BCF13B
:105CB000000F0FD0834204D307E001339842A36062
:105CC00003D912F8011F2029F7D9984204BF00F127
:105CD000FF30A06021464046FFF7E6FD00283FF474
:105CE00077AFD4F800C0D4E90103BCF1000F0CD0A9
:105CF000834223D25A1E624403E001338342A360ED
:105D00001ED012F8011F2029F7D998427FF660AF04
:105D10001CF803302C2B3FF475AF7D2B7FF458AF6C
:105D2000E368402220E70B4601469C4508BFA1607E
:105D300090E7464679E7431EA360A8E77FF448AFA3
:105D4000431EA360E1E7002E3FF4ECAD40E7D4E949
:105D500001039CE7013EA66045E7002602E7002616
:105D6000DEE700BFF0B5354F002489B0CDE902442D
:105D7000CDE90444CDE90644C7E9004405460028BE
:105D80003ED0019003F01AF92D4A0394034607CA46
:105D90000133029308AB03E9070003462820984724
:105DA000064628B32146282202F09EF90199C1B186
:105DB000039B002B3FD1029C042C2CD824B3013B25
:105DC000601E0B44084402E0984203921DD01A461C
:105DD00013F801CF0232BCF1200FA2EB0102F3D97C
:105DE00001A93046FFF760FD58B93046FFF736FD90
:105DF000DDE90223934201D3CAB1531EC7E9005320
:105E00000026304609B0F0BD2246A24204BF02F18E
:105E1000FF320392E4E70A78EF2AD0D14A78BB2A0E
:105E2000CDD18A78BF2ACAD103230393C7E713468B
:105E3000C7E90053E4E72146D3E700BFC4D60020FA
:105E4000240000200022FFF7DDBA00BF0FB430B5F8
:105E5000124C83B006ABD4F8000253F8042B019324
:105E6000402104EB801004F0A7F9D4F8005204EBB1
:105E70008515284603F0A2F8094B01465B682846C1
:105E80009847D4F80032013303F00703C4F8003216
:105E900003B0BDE8304004B0704700BFB0FC012043
:105EA0001C000020014B1870704700BFCCD60020AA
:105EB000014B1878704700BFCCD6002010B5064CB7
:105EC000E36D9847054809F037FE00F05BFDA36BD2
:105ED000BDE81040184700BF08030020D0D60020BE
:105EE00030B583B000F066FC48BB09F031FB204CB4
:105EF000606070B340F6080009F054F9034660B1E1
:105F00001C4A1D495A604FF4006500205D801870DE
:105F10000A68A2F5006208330A604FF400620125A6
:105F2000CDE900251548164AA360002109F0BAFB07
:105F3000206098B103B0BDE8304000F011BD0146CB
:105F40000120FBF777FC09F003FB094C6060002897
:105F5000D0D138210120FBF76DFCCBE72846382152
:105F6000FBF768FC03B0BDE8304000F0F9BC00BFAF
:105F7000D0D60020ADDEADDE14040020D9610100D2
:105F8000C8790600000000002DE9F04F85B00546F5
:105F90000E9C03930E461746002C40F0CD80062938
:105FA0004FF49A7086BF4FF001080626A04609F00C
:105FB000F9F8002800F0D980774BDFF8149243609D
:105FC0004FF49671002241800270D9F80030A3F599
:105FD000967300F10804C9F80030DDED037AF8EE9D
:105FE000E77A17EE900A4FF0C3FA69A3D3E90023CA
:105FF0004FF016FB4FF0C4FD684945F65A22824621
:10600000204602F033FF204602F0D8FF644B0246E0
:1060100003CB04EB020C1B88A050CCF80410ACF8A6
:1060200008306EB1DFF8ACB12E44204602F0C6FF56
:1060300015F8012B2044594602F018FFAE42F4D166
:10604000B8F1000F6ED1204602F0B8FF7A78BB7825
:10605000009301920138FB783A795249204402F0CA
:1060600005FF204602F0AAFF4F495246204402F0A5
:10607000FDFE204602F0A2FF109B4C4A0F9E4C49A9
:106080005B4282FB0357DD17C5EB6715642707FBEF
:10609000153576420195109D82FB063CF317C3EB44
:1060A0006C1E82FB053C0F9B82FB03320F9BED179E
:1060B000C5EB6C154FEAE37CCCEB621207FB1E6369
:1060C0000095204402F0D2FE204602F077FF394AC4
:1060D000394903461068E050DA1EA01C02F0C6FEE3
:1060E0007B23A371204602F069FF01462046FDF79D
:1060F0009FF8082C0546A4F108000DD0264A4168F7
:1061000014F8083C91423BD1022B33D8418859F80E
:1061100023200A4449F8232009F046F8284605B010
:10612000BDE8F08F204602F049FF244B2218198861
:106130009B782152937086E74FF4187009F032F87B
:1061400098B1154BDFF8889043604FF416724FF00A
:106150000008428080F80080D9F80030A3F516735B
:1061600000F10804C9F8003037E74725284605B094
:10617000BDE8F08F124B134A1348CA2101F02AFFE1
:10618000124B104A1048C92101F024FFAFF30080E0
:106190000000000084D7F73FADDEADDEAC6906003D
:1061A000287A0600E0790600007A06001F85EB5188
:1061B000087A060088800600706A0600DC7906000E
:1061C0001C680600487A0600B46706009C67060053
:1061D00014040020D47906002DE9F0418AB001E0D2
:1061E00009F028FB00F0D4FA04460520002CF7D073
:1061F000334D0027EF6008F0CDFF064638462AF001
:106200002BFD304608F0CCFFEB684FF0FF3209A9B8
:10621000D3B9686809F018FA0028F5D1099B012B59
:1062200012D008F0B7FFB4F88069B4F88279F61B91
:1062300008F0B6FF330715D109F0D8FAEB684FF034
:10624000FF3209A9002BE4D00223EB60EB68022B9C
:1062500005D1012009F0EEFAEB68022BF9D00AB063
:10626000BDE8F081982101FB07F104EB010801F181
:106270008102B8F99430079322448E1C615C069128
:10628000059200F091FA8446D8F890000290D8F870
:106290008C00079BCDF800C026440137DDE90521BD
:1062A000019007F00F073046FFF76EFE08F072FF0F
:1062B000A4F8827908F074FFFCF73EFFBCE700BF4A
:1062C000D0D6002008B5074B1A6822B158680221C1
:1062D00009F0B0F900B908BDBDE808403B21012034
:1062E000FBF7A8BAD0D60020024B1868003818BFB8
:1062F00001207047D0D6002000B5022083B000F006
:106300004DFA044B019301A813F0E0FD024803B0DD
:106310005DF804FB30110100B06E06002DE9F84F66
:106320004FF49A7008F03EFF002800F09F804FF471
:106330009672DFF8A4B1DFF8A491428000230370C5
:10634000C0F804B0D9F80030504DA3F5967300F1B1
:1063500008080746C9F8003008F01CFF824600F024
:1063600017FA4B49044645F65A22404602F07EFD94
:106370000FCD2D78C7F81A30BD77C7F80E00C7F8D3
:106380001210C7F81620B4F88829424907F11E00F8
:1063900002F06CFD00F11606B4F88A293E4908EBBC
:1063A000060002F063FD064494F88C293B4908EB93
:1063B000060002F05BFD0644B4F88429384908EB76
:1063C000060002F053FD3518B4F88629354908EB6C
:1063D000050002F04BFD0544B4F88E29324908EB64
:1063E000050002F043FD2E18B4F890292F4908EB60
:1063F000060002F03BFD064494F892292C4908EB74
:10640000060002F033FD0644D4F89C29294908EB24
:10641000060002F02BFD34182749A21F07F10A00DD
:1064200002F024FD7B23BB73404602F0C7FD234BE3
:10643000234A99781D8828F8005008EB000340464D
:1064400099705368A11C98477A683B785A4516D1D1
:10645000022B0ED8798859F8232038460A4449F887
:10646000232008F0A1FE504608F09AFE1548BDE82A
:10647000F88F154B154A1648CA2101F0ABFD154B94
:10648000124A1348C92101F0A5FD00BF5C7A06003D
:10649000AC690600707A0600807A0600907A0600E1
:1064A000A07A0600AC7A0600B87A0600C87A060020
:1064B000D47A0600E07A0600706A06002C690600AD
:1064C0001C000020B06E06001C6806003C7C060024
:1064D000B46706009C670600ADDEADDE1404002044
:1064E00008B5054B186800F684102AF04DFDBDE88C
:1064F000084000202AF0B0BBE4D600202DE9F04F80
:10650000934B2DED068B1C6887B094B1B4F880597D
:10651000B4F8823905F1010AA3EB0A031B070DD178
:10652000FFF7D0FE04F684102AF02EFD00202AF09A
:1065300093FB07B0BDEC068BBDE8F08F982707FBF7
:1065400005F7064607F181002044FF212AF048FBA9
:106550002AF0D2FCE3193268C3F88820A3F894002B
:10656000D4F89C390133C4F89C39327A12F0020213
:1065700000F0D1800023E353FCF71AFD06462AF011
:10658000D3F9744B9FED747ADFED747A20F010002C
:1065900098424FF00003684614BF17EE90BA17EE0A
:1065A00010BA8DF815302AF0E3FDDDED007A707930
:1065B000039B9FED6B7ADFED6B6A9DF81480F8EE1C
:1065C000679ADDED047A69EEA99AF8EE677ADDE95B
:1065D0000112C7EEA97A08284FEA92024FEA930304
:1065E0004FEA910108EB48084FEA48085FFA88F83B
:1065F00094BF17EE106A16EE906A17EE900A09EE35
:10660000102A08EE903A08EE101A4EF0B1FF41EC55
:10661000100B06F0F1FD304657EC106B4EF0A8FF62
:1066200002460B46404643EC1A2B4EF08FFF4E4B72
:10663000804689460022304639464EF0F1FF53EC41
:106640001A2B4EF037FEB8EEC88AB8EEC99A064645
:10665000584629EE099A0F46F8EEE88A4EF088FF70
:1066600028EE088A68EEA88A38EE098A02460B46A8
:10667000304639464EF01EFE38EE288A42464B46DA
:106680004EF018FE4FF0C4FAC8EE297A09EE100A4F
:1066900017EE900A4EF06CFF41EC100B06F0ACFDCB
:1066A000314B51EC100B00224EF0BAFF53EC1A2B79
:1066B0004EF000FE42464B464EF0FCFD4FF0A8FA6D
:1066C0009FED2A7AB4EEC79AF1EE10FA07EE900A1F
:1066D00004D4B5EEC09AF1EE10FA2FDD00229FED42
:1066E000237AF4EEC77AF1EE10FA04D4F5EEC07A0C
:1066F000F1EE10FA19DD0023982101FB0545C5E9EB
:106700002323FFF7F1FD00283FF40AAF0AF00F0A38
:10671000A4F880A904E7F1887F2928BF7F21B81C4D
:10672000E15320442AF0AEFB26E79FED117A67EE95
:10673000877AFDEEE77A17EE903ADDE79FED0C7A67
:1067400029EE079ABDEEC97A17EE102AC7E700BFF7
:10675000E4D600200203CADECDCC7C4233B34C42E7
:106760009A99E3C26666F3C2000024400000F0C2BA
:106770000000C84208B5054B186800F684102AF0DE
:1067800003FCBDE8084000202AF066BAE4D60020E9
:10679000014B1868704700BFE4D60020014B186019
:1067A000704700BFE0D60020014B1868704700BF5B
:1067B000E0D60020F0B55B4D8DB02B689847AB68F4
:1067C00098472B6E012098476B689847002840F047
:1067D000A280554E3468002C7DD000210E464FF427
:1067E0001A62204601F080FCC4F88469C4F8886904
:1067F000C4F88C69C4F89069C4F89469C4F89869BD
:10680000FCF7D6FB2B690746984708F0C3FC044603
:1068100030462AF0BBF800285AD1AB6D1BB11B697A
:10682000DA68186A90476B6D984701286CD06B6DD9
:106830009847022843D100233C48BB73FFF706FB6F
:1068400038462AF0E1F8002859D100202AF00AFB46
:1068500000202AF00BFA002108462AF0C7FA30225D
:106860000021684601F040FC03202AF0B3FB03201E
:106870002AF07CF82E492F4A2F4B03936846CDE926
:1068800001122AF03BFA022200212C482C4D2AF05A
:106890004FFA01202AF044FB01202AF065FBFCF7A7
:1068A00083FB90F869022AF0A9FBEB6898472B69F3
:1068B0009847204608F074FC00200DB0F0BD2AF087
:1068C00033F801461F48FFF7C1FAFF200DB0F0BDB5
:1068D00007200DB0F0BD40F6A81008F063FCB8B179
:1068E000194B1A4A04704FF41A61418043601368CF
:1068F00000F10804A3F51A63346013606DE7072103
:106900000120FAF797FFA0E71148FFF79FFA97E7F2
:1069100030604820D1E70F4B0F4A1048F02101F0BA
:1069200059FB00BF08030020E4D60020E87C0600E5
:10693000FD640100E16401007567010080D003245B
:1069400088610600187D0600ADDEADDE140400206F
